{
	"data": {
		"bytecode": {
			"linkReferences": {},
			"object": "608060405260008060016101000a81548160ff0219169083600381111561002257fe5b021790555034801561003357600080fd5b506102fd806100436000396000f3fe608060405234801561001057600080fd5b50600436106100935760003560e01c8063b1e9224711610066578063b1e9224714610106578063b46e8d1a14610134578063daf4343f14610160578063e7260f9a1461016a578063e9073c331461017457610093565b806331e8fbfb1461009857806339feafa3146100c65780638a60839f146100f2578063943fad7f146100fc575b600080fd5b6100c4600480360360208110156100ae57600080fd5b810190808035906020019092919050505061017e565b005b6100ce6101ae565b604051808260038111156100de57fe5b60ff16815260200191505060405180910390f35b6100fa6101c4565b005b6101046101ea565b005b6101326004803603602081101561011c57600080fd5b8101908080359060200190929190505050610210565b005b61013c610241565b6040518082600181111561014c57fe5b60ff16815260200191505060405180910390f35b610168610257565b005b61017261027d565b005b61017c6102a2565b005b80600181111561018a57fe5b6000806101000a81548160ff021916908360018111156101a657fe5b021790555050565b60008060019054906101000a900460ff16905090565b6002600060016101000a81548160ff021916908360038111156101e357fe5b0217905550565b6003600060016101000a81548160ff0219169083600381111561020957fe5b0217905550565b80600381111561021c57fe5b600060016101000a81548160ff0219169083600381111561023957fe5b021790555050565b60008060009054906101000a900460ff16905090565b6001600060016101000a81548160ff0219169083600381111561027657fe5b0217905550565b60008060016101000a81548160ff0219169083600381111561029b57fe5b0217905550565b60008060006101000a81548160ff021916908360018111156102c057fe5b021790555056fea2646970667358221220aa016b92fbfe9c7cf6ade2d8defc67ff9c9d157364c814e1e6ed91a5f009cac064736f6c63430006000033",
			"opcodes": "PUSH1 0x80 PUSH1 0x40 MSTORE PUSH1 0x0 DUP1 PUSH1 0x1 PUSH2 0x100 EXP DUP2 SLOAD DUP2 PUSH1 0xFF MUL NOT AND SWAP1 DUP4 PUSH1 0x3 DUP2 GT ISZERO PUSH2 0x22 JUMPI INVALID JUMPDEST MUL OR SWAP1 SSTORE POP CALLVALUE DUP1 ISZERO PUSH2 0x33 JUMPI PUSH1 0x0 DUP1 REVERT JUMPDEST POP PUSH2 0x2FD DUP1 PUSH2 0x43 PUSH1 0x0 CODECOPY PUSH1 0x0 RETURN INVALID PUSH1 0x80 PUSH1 0x40 MSTORE CALLVALUE DUP1 ISZERO PUSH2 0x10 JUMPI PUSH1 0x0 DUP1 REVERT JUMPDEST POP PUSH1 0x4 CALLDATASIZE LT PUSH2 0x93 JUMPI PUSH1 0x0 CALLDATALOAD PUSH1 0xE0 SHR DUP1 PUSH4 0xB1E92247 GT PUSH2 0x66 JUMPI DUP1 PUSH4 0xB1E92247 EQ PUSH2 0x106 JUMPI DUP1 PUSH4 0xB46E8D1A EQ PUSH2 0x134 JUMPI DUP1 PUSH4 0xDAF4343F EQ PUSH2 0x160 JUMPI DUP1 PUSH4 0xE7260F9A EQ PUSH2 0x16A JUMPI DUP1 PUSH4 0xE9073C33 EQ PUSH2 0x174 JUMPI PUSH2 0x93 JUMP JUMPDEST DUP1 PUSH4 0x31E8FBFB EQ PUSH2 0x98 JUMPI DUP1 PUSH4 0x39FEAFA3 EQ PUSH2 0xC6 JUMPI DUP1 PUSH4 0x8A60839F EQ PUSH2 0xF2 JUMPI DUP1 PUSH4 0x943FAD7F EQ PUSH2 0xFC JUMPI JUMPDEST PUSH1 0x0 DUP1 REVERT JUMPDEST PUSH2 0xC4 PUSH1 0x4 DUP1 CALLDATASIZE SUB PUSH1 0x20 DUP2 LT ISZERO PUSH2 0xAE JUMPI PUSH1 0x0 DUP1 REVERT JUMPDEST DUP2 ADD SWAP1 DUP1 DUP1 CALLDATALOAD SWAP1 PUSH1 0x20 ADD SWAP1 SWAP3 SWAP2 SWAP1 POP POP POP PUSH2 0x17E JUMP JUMPDEST STOP JUMPDEST PUSH2 0xCE PUSH2 0x1AE JUMP JUMPDEST PUSH1 0x40 MLOAD DUP1 DUP3 PUSH1 0x3 DUP2 GT ISZERO PUSH2 0xDE JUMPI INVALID JUMPDEST PUSH1 0xFF AND DUP2 MSTORE PUSH1 0x20 ADD SWAP2 POP POP PUSH1 0x40 MLOAD DUP1 SWAP2 SUB SWAP1 RETURN JUMPDEST PUSH2 0xFA PUSH2 0x1C4 JUMP JUMPDEST STOP JUMPDEST PUSH2 0x104 PUSH2 0x1EA JUMP JUMPDEST STOP JUMPDEST PUSH2 0x132 PUSH1 0x4 DUP1 CALLDATASIZE SUB PUSH1 0x20 DUP2 LT ISZERO PUSH2 0x11C JUMPI PUSH1 0x0 DUP1 REVERT JUMPDEST DUP2 ADD SWAP1 DUP1 DUP1 CALLDATALOAD SWAP1 PUSH1 0x20 ADD SWAP1 SWAP3 SWAP2 SWAP1 POP POP POP PUSH2 0x210 JUMP JUMPDEST STOP JUMPDEST PUSH2 0x13C PUSH2 0x241 JUMP JUMPDEST PUSH1 0x40 MLOAD DUP1 DUP3 PUSH1 0x1 DUP2 GT ISZERO PUSH2 0x14C JUMPI INVALID JUMPDEST PUSH1 0xFF AND DUP2 MSTORE PUSH1 0x20 ADD SWAP2 POP POP PUSH1 0x40 MLOAD DUP1 SWAP2 SUB SWAP1 RETURN JUMPDEST PUSH2 0x168 PUSH2 0x257 JUMP JUMPDEST STOP JUMPDEST PUSH2 0x172 PUSH2 0x27D JUMP JUMPDEST STOP JUMPDEST PUSH2 0x17C PUSH2 0x2A2 JUMP JUMPDEST STOP JUMPDEST DUP1 PUSH1 0x1 DUP2 GT ISZERO PUSH2 0x18A JUMPI INVALID JUMPDEST PUSH1 0x0 DUP1 PUSH2 0x100 EXP DUP2 SLOAD DUP2 PUSH1 0xFF MUL NOT AND SWAP1 DUP4 PUSH1 0x1 DUP2 GT ISZERO PUSH2 0x1A6 JUMPI INVALID JUMPDEST MUL OR SWAP1 SSTORE POP POP JUMP JUMPDEST PUSH1 0x0 DUP1 PUSH1 0x1 SWAP1 SLOAD SWAP1 PUSH2 0x100 EXP SWAP1 DIV PUSH1 0xFF AND SWAP1 POP SWAP1 JUMP JUMPDEST PUSH1 0x2 PUSH1 0x0 PUSH1 0x1 PUSH2 0x100 EXP DUP2 SLOAD DUP2 PUSH1 0xFF MUL NOT AND SWAP1 DUP4 PUSH1 0x3 DUP2 GT ISZERO PUSH2 0x1E3 JUMPI INVALID JUMPDEST MUL OR SWAP1 SSTORE POP JUMP JUMPDEST PUSH1 0x3 PUSH1 0x0 PUSH1 0x1 PUSH2 0x100 EXP DUP2 SLOAD DUP2 PUSH1 0xFF MUL NOT AND SWAP1 DUP4 PUSH1 0x3 DUP2 GT ISZERO PUSH2 0x209 JUMPI INVALID JUMPDEST MUL OR SWAP1 SSTORE POP JUMP JUMPDEST DUP1 PUSH1 0x3 DUP2 GT ISZERO PUSH2 0x21C JUMPI INVALID JUMPDEST PUSH1 0x0 PUSH1 0x1 PUSH2 0x100 EXP DUP2 SLOAD DUP2 PUSH1 0xFF MUL NOT AND SWAP1 DUP4 PUSH1 0x3 DUP2 GT ISZERO PUSH2 0x239 JUMPI INVALID JUMPDEST MUL OR SWAP1 SSTORE POP POP JUMP JUMPDEST PUSH1 0x0 DUP1 PUSH1 0x0 SWAP1 SLOAD SWAP1 PUSH2 0x100 EXP SWAP1 DIV PUSH1 0xFF AND SWAP1 POP SWAP1 JUMP JUMPDEST PUSH1 0x1 PUSH1 0x0 PUSH1 0x1 PUSH2 0x100 EXP DUP2 SLOAD DUP2 PUSH1 0xFF MUL NOT AND SWAP1 DUP4 PUSH1 0x3 DUP2 GT ISZERO PUSH2 0x276 JUMPI INVALID JUMPDEST MUL OR SWAP1 SSTORE POP JUMP JUMPDEST PUSH1 0x0 DUP1 PUSH1 0x1 PUSH2 0x100 EXP DUP2 SLOAD DUP2 PUSH1 0xFF MUL NOT AND SWAP1 DUP4 PUSH1 0x3 DUP2 GT ISZERO PUSH2 0x29B JUMPI INVALID JUMPDEST MUL OR SWAP1 SSTORE POP JUMP JUMPDEST PUSH1 0x0 DUP1 PUSH1 0x0 PUSH2 0x100 EXP DUP2 SLOAD DUP2 PUSH1 0xFF MUL NOT AND SWAP1 DUP4 PUSH1 0x1 DUP2 GT ISZERO PUSH2 0x2C0 JUMPI INVALID JUMPDEST MUL OR SWAP1 SSTORE POP JUMP INVALID LOG2 PUSH5 0x6970667358 0x22 SLT KECCAK256 0xAA ADD PUSH12 0x92FBFE9C7CF6ADE2D8DEFC67 SELFDESTRUCT SWAP13 SWAP14 ISZERO PUSH20 0x64C814E1E6ED91A5F009CAC064736F6C63430006 STOP STOP CALLER "
		},
		"gasEstimates": {
			"creation": {
				"codeDepositCost": "153000",
				"executionCost": "21133",
				"totalCost": "174133"
			},
			"external": {
				"Direcciones()": "1154",
				"Estado()": "1103",
				"abajo()": "21125",
				"arriba()": "21147",
				"derecha()": "21126",
				"encender()": "21119",
				"fijarDirecciones(uint256)": "21191",
				"fijarEstaddo(uint256)": "21142",
				"izquierda()": "21148"
			}
		},
		"methodIdentifiers": {
			"Direcciones()": "39feafa3",
			"Estado()": "b46e8d1a",
			"abajo()": "daf4343f",
			"arriba()": "e7260f9a",
			"derecha()": "8a60839f",
			"encender()": "e9073c33",
			"fijarDirecciones(uint256)": "b1e92247",
			"fijarEstaddo(uint256)": "31e8fbfb",
			"izquierda()": "943fad7f"
		}
	},
	"abi": [
		{
			"inputs": [],
			"name": "Direcciones",
			"outputs": [
				{
					"internalType": "enum EjemploEnumeraciones.direcciones",
					"name": "",
					"type": "uint8"
				}
			],
			"stateMutability": "view",
			"type": "function"
		},
		{
			"inputs": [],
			"name": "Estado",
			"outputs": [
				{
					"internalType": "enum EjemploEnumeraciones.estado",
					"name": "",
					"type": "uint8"
				}
			],
			"stateMutability": "view",
			"type": "function"
		},
		{
			"inputs": [],
			"name": "abajo",
			"outputs": [],
			"stateMutability": "nonpayable",
			"type": "function"
		},
		{
			"inputs": [],
			"name": "arriba",
			"outputs": [],
			"stateMutability": "nonpayable",
			"type": "function"
		},
		{
			"inputs": [],
			"name": "derecha",
			"outputs": [],
			"stateMutability": "nonpayable",
			"type": "function"
		},
		{
			"inputs": [],
			"name": "encender",
			"outputs": [],
			"stateMutability": "nonpayable",
			"type": "function"
		},
		{
			"inputs": [
				{
					"internalType": "uint256",
					"name": "_k",
					"type": "uint256"
				}
			],
			"name": "fijarDirecciones",
			"outputs": [],
			"stateMutability": "nonpayable",
			"type": "function"
		},
		{
			"inputs": [
				{
					"internalType": "uint256",
					"name": "_k",
					"type": "uint256"
				}
			],
			"name": "fijarEstaddo",
			"outputs": [],
			"stateMutability": "nonpayable",
			"type": "function"
		},
		{
			"inputs": [],
			"name": "izquierda",
			"outputs": [],
			"stateMutability": "nonpayable",
			"type": "function"
		}
	]
}