{
	"data": {
		"bytecode": {
			"linkReferences": {},
			"object": "608060405242600055603c600155611c206002556241eb0060035562093a8060045534801561002d57600080fd5b506101708061003d6000396000f3fe608060405260043610610062576000357c0100000000000000000000000000000000000000000000000000000000900463ffffffff16806301a3487514610067578063108c4abb146100925780631fd8d6b4146100bd578063d2c5381a146100e8575b600080fd5b34801561007357600080fd5b5061007c610113565b6040518082815260200191505060405180910390f35b34801561009e57600080fd5b506100a761011e565b6040518082815260200191505060405180910390f35b3480156100c957600080fd5b506100d261012a565b6040518082815260200191505060405180910390f35b3480156100f457600080fd5b506100fd610137565b6040518082815260200191505060405180910390f35b600060324201905090565b6000610e104201905090565b600062093a804201905090565b60006203f480420190509056fea165627a7a72305820ef78b3bba0b8e693e81206e905d489a4db11eb356f92336a7b0d8ca60fe29dfc0029",
			"opcodes": "PUSH1 0x80 PUSH1 0x40 MSTORE TIMESTAMP PUSH1 0x0 SSTORE PUSH1 0x3C PUSH1 0x1 SSTORE PUSH2 0x1C20 PUSH1 0x2 SSTORE PUSH3 0x41EB00 PUSH1 0x3 SSTORE PUSH3 0x93A80 PUSH1 0x4 SSTORE CALLVALUE DUP1 ISZERO PUSH2 0x2D JUMPI PUSH1 0x0 DUP1 REVERT JUMPDEST POP PUSH2 0x170 DUP1 PUSH2 0x3D PUSH1 0x0 CODECOPY PUSH1 0x0 RETURN INVALID PUSH1 0x80 PUSH1 0x40 MSTORE PUSH1 0x4 CALLDATASIZE LT PUSH2 0x62 JUMPI PUSH1 0x0 CALLDATALOAD PUSH29 0x100000000000000000000000000000000000000000000000000000000 SWAP1 DIV PUSH4 0xFFFFFFFF AND DUP1 PUSH4 0x1A34875 EQ PUSH2 0x67 JUMPI DUP1 PUSH4 0x108C4ABB EQ PUSH2 0x92 JUMPI DUP1 PUSH4 0x1FD8D6B4 EQ PUSH2 0xBD JUMPI DUP1 PUSH4 0xD2C5381A EQ PUSH2 0xE8 JUMPI JUMPDEST PUSH1 0x0 DUP1 REVERT JUMPDEST CALLVALUE DUP1 ISZERO PUSH2 0x73 JUMPI PUSH1 0x0 DUP1 REVERT JUMPDEST POP PUSH2 0x7C PUSH2 0x113 JUMP JUMPDEST PUSH1 0x40 MLOAD DUP1 DUP3 DUP2 MSTORE PUSH1 0x20 ADD SWAP2 POP POP PUSH1 0x40 MLOAD DUP1 SWAP2 SUB SWAP1 RETURN JUMPDEST CALLVALUE DUP1 ISZERO PUSH2 0x9E JUMPI PUSH1 0x0 DUP1 REVERT JUMPDEST POP PUSH2 0xA7 PUSH2 0x11E JUMP JUMPDEST PUSH1 0x40 MLOAD DUP1 DUP3 DUP2 MSTORE PUSH1 0x20 ADD SWAP2 POP POP PUSH1 0x40 MLOAD DUP1 SWAP2 SUB SWAP1 RETURN JUMPDEST CALLVALUE DUP1 ISZERO PUSH2 0xC9 JUMPI PUSH1 0x0 DUP1 REVERT JUMPDEST POP PUSH2 0xD2 PUSH2 0x12A JUMP JUMPDEST PUSH1 0x40 MLOAD DUP1 DUP3 DUP2 MSTORE PUSH1 0x20 ADD SWAP2 POP POP PUSH1 0x40 MLOAD DUP1 SWAP2 SUB SWAP1 RETURN JUMPDEST CALLVALUE DUP1 ISZERO PUSH2 0xF4 JUMPI PUSH1 0x0 DUP1 REVERT JUMPDEST POP PUSH2 0xFD PUSH2 0x137 JUMP JUMPDEST PUSH1 0x40 MLOAD DUP1 DUP3 DUP2 MSTORE PUSH1 0x20 ADD SWAP2 POP POP PUSH1 0x40 MLOAD DUP1 SWAP2 SUB SWAP1 RETURN JUMPDEST PUSH1 0x0 PUSH1 0x32 TIMESTAMP ADD SWAP1 POP SWAP1 JUMP JUMPDEST PUSH1 0x0 PUSH2 0xE10 TIMESTAMP ADD SWAP1 POP SWAP1 JUMP JUMPDEST PUSH1 0x0 PUSH3 0x93A80 TIMESTAMP ADD SWAP1 POP SWAP1 JUMP JUMPDEST PUSH1 0x0 PUSH3 0x3F480 TIMESTAMP ADD SWAP1 POP SWAP1 JUMP INVALID LOG1 PUSH6 0x627A7A723058 KECCAK256 0xef PUSH25 0xB3BBA0B8E693E81206E905D489A4DB11EB356F92336A7B0D8C 0xa6 0xf 0xe2 SWAP14 0xfc STOP 0x29 "
		},
		"gasEstimates": {
			"creation": {
				"codeDepositCost": "73600",
				"executionCost": "100152",
				"totalCost": "173752"
			},
			"external": {
				"MasDias()": "273",
				"MasHoras()": "229",
				"MasSegundos()": "207",
				"MasSemanas()": "251"
			}
		},
		"methodIdentifiers": {
			"MasDias()": "d2c5381a",
			"MasHoras()": "108c4abb",
			"MasSegundos()": "01a34875",
			"MasSemanas()": "1fd8d6b4"
		}
	},
	"abi": [
		{
			"constant": true,
			"inputs": [],
			"name": "MasSegundos",
			"outputs": [
				{
					"name": "",
					"type": "uint256"
				}
			],
			"payable": false,
			"stateMutability": "view",
			"type": "function"
		},
		{
			"constant": true,
			"inputs": [],
			"name": "MasHoras",
			"outputs": [
				{
					"name": "",
					"type": "uint256"
				}
			],
			"payable": false,
			"stateMutability": "view",
			"type": "function"
		},
		{
			"constant": true,
			"inputs": [],
			"name": "MasSemanas",
			"outputs": [
				{
					"name": "",
					"type": "uint256"
				}
			],
			"payable": false,
			"stateMutability": "view",
			"type": "function"
		},
		{
			"constant": true,
			"inputs": [],
			"name": "MasDias",
			"outputs": [
				{
					"name": "",
					"type": "uint256"
				}
			],
			"payable": false,
			"stateMutability": "view",
			"type": "function"
		}
	]
}